:100000000C946D000C9495000C9495000C94950044
:100010000C9495000C9495000C9495000C9495000C
:100020000C9495000C9495000C9495000C949500FC
:100030000C9495000C9495000C9495000C949500EC
:100040000C9489050C9495000C94DC030C940E041C
:100050000C9495000C9495000C9495000C949500CC
:100060000C9495000C9495009E01810185018901F5
:100070008D01910195019901A001830187018B01F7
:100080008F01930197019B0100000008000201000D
:100090000003040700000000000000000102040843
:1000A00010204080010204081020010204081020E2
:1000B000040404040404040402020202020203030E
:1000C0000303030300000000250028002B000000AC
:1000D0000000240027002A003E0411241FBECFEF99
:1000E000D8E0DEBFCDBF11E0A0E0B1E0E0EAFDE086
:1000F00002C005900D92A437B107D9F722E0A4E71A
:10010000B1E001C01D92AB39B207E1F710E0CAEDD2
:10011000D0E004C02297FE010E94CA06C83DD10764
:10012000C9F70E9488020C94CE060C940000DC01F2
:10013000ED91FC910190F081E02D09940895CF9309
:10014000C82F60E071E085EF91E00E94BF0468E293
:1001500070E085EF91E00E949700C3FB662760F98D
:100160004AE050E070E085EF91E00E9481056CE28A
:1001700070E085EF91E00E949700C2FB662760F96E
:100180004AE050E070E085EF91E00E9481056CE26A
:1001900070E085EF91E00E949700C1FB662760F94F
:1001A0004AE050E070E085EF91E00E9481056CE24A
:1001B00070E085EF91E00E9497006C2F61704AE03B
:1001C00050E070E085EF91E00E94810569E270E007
:1001D00085EF91E00E94970044E751E020E030E095
:1001E000FA01E20FF31FC083205F3F4F2039310532
:1001F000B9F74F5F5F4F81E04538580779F768E1FD
:1002000071E085EF91E0CF910C94CC041F93CF93D4
:10021000DF93162F60E00E947006C9E0D0E02197BE
:1002200049F060E0812F0E94700661E0812F0E94FA
:100230007006F5CFDF91CF911F91089561E271E0D3
:1002400085EF91E00E94CC0461E08BE00E943706CC
:1002500061E08DE00E94370661E08CE00E94370685
:1002600061E082E00E94370661E085E00E94370687
:1002700061E088E00E94370661E083E00E94370673
:1002800061E086E00E94370661E089E00E9437065F
:1002900061E084E00E94370661E087E00E94370653
:1002A00061E08AE00E94370661E08DE00E94370637
:1002B0006DE08BE00E94060161E08BE00E94700619
:1002C00060E08DE00E94700661E08DE00E947006A3
:1002D00060E08BE00E94700660E08BE00E943706D1
:1002E00080E00E949F006CE371E085EF91E00C9448
:1002F000CC048031910508F5FC01EC5CFF4F0C94B7
:10030000C80686E01EC08EE01CC085E01AC08DE0E5
:1003100018C084E016C08CE014C083E012C08BE0EB
:1003200010C082E00EC08AE00CC081E00AC089E003
:1003300008C080E006C088E004C0089587E001C0DE
:100340008FE090E008952F923F924F925F926F92CC
:100350007F928F929F92AF92BF92CF92DF92EF9255
:10036000FF920F931F93CF93DF9300D000D0CDB7B0
:10037000DEB734EEA32E32E0B32E47E150E00FE0BB
:1003800010E04A0184E0880C991C8A95E1F76A0123
:10039000E8E0CE1AD10894E0CC0CDD1C9A95E1F788
:1003A0007A01F0E1EF1AF10824E0EE0CFF1C2A9527
:1003B000E1F73501600E711EF301E058F10940804C
:1003C000E058F1095080C8014B835C830E94790199
:1003D000F401E80FF91FEC58FE4F3080F601E80FEA
:1003E000F91FEC58FE4F2080F701E80FF91FEC5879
:1003F000FE4F2081F30190819095692F687082E013
:100400002A8399830E947006632D6095647085E04D
:100410000E9470069981692F627088E00E947006C0
:100420004094642D687083E00E947006622D609590
:10043000647086E00E947006642D627089E00E94FC
:1004400070065094652D687084E00E9470062A81C1
:10045000622F6095647087E00E947006652D62705F
:100460008AE00E94700660E08CE00E94700661E005
:100470008CE00E947006015011094B815C810F3F96
:10048000FFEF1F0709F095CF60E08DE00E94700636
:1004900061E08DE00E94700680E1A81AB1084B81EE
:1004A0005C81415051094F30510509F068CF80916E
:1004B000F4018F5F8093F4010F900F900F900F90D5
:1004C000DF91CF911F910F91FF90EF90DF90CF9030
:1004D000BF90AF909F908F907F906F905F904F9064
:1004E0003F902F90089526E040E855E260E070E0EC
:1004F00085EF91E00E947A030E941E016FE471E093
:1005000085EF91E00E94CC048EE0809394020895E0
:100510000E94D3050E949E000E947302C4ECD2E0A8
:100520000E94A3012097E1F30E94C402F9CFFC01CD
:10053000818D228D90E0805C9F4F821B91098F738B
:1005400099270895FC01918D828D981731F0828D45
:10055000E80FF11D858D90E008958FEF9FEF0895CE
:10056000FC01918D828D981761F0828DDF01A80FBB
:10057000B11D5D968C91928D9F5F9F73928F90E0DD
:1005800008958FEF9FEF089584E394E0892B49F05D
:1005900080E090E0892B29F00E94340481110C94B2
:1005A00000000895FC01848DDF01A80FB11DA35A3E
:1005B000BF4F2C91848D90E001968F739927848F83
:1005C000A689B7892C93A089B1898C9180648C937A
:1005D000938D848D981306C00288F389E02D808165
:1005E0008F7D80830895CF93DF93EC01888D8823DE
:1005F000C9F0EA89FB89808185FD05C0A889B98990
:100600008C9186FD0FC00FB607FCF5CF808185FF6A
:10061000F2CFA889B9898C9185FFEDCFCE010E94D8
:10062000D202E7CFDF91CF910895CF92DF92FF9270
:100630000F931F93CF93DF931F92CDB7DEB76C015B
:1006400081E0D60158968C9358975B969C915B9766
:100650005C968C915C97981307C05096ED91FC9135
:100660005197808185FD2EC0F601038D10E00F5F4C
:100670001F4F0F731127F02EF601848DF81211C051
:100680000FB607FCF9CFD6015096ED91FC9151972A
:10069000808185FFF1CFC60169830E94D202698102
:1006A000EBCF838DE80FF11DE35AFF4F6083D60136
:1006B0005B960C935B975296ED91FC9153978081DA
:1006C00080620CC0D6015696ED91FC9157976083DD
:1006D0005096ED91FC91519780818064808381E0F8
:1006E00090E00F90DF91CF911F910F91FF90DF90DD
:1006F000CF900895BF92CF92DF92EF92FF92CF9367
:10070000DF93EC016A017B01B22EE889F98982E06E
:100710008083411581EE580761057105A1F060E005
:1007200079E08DE390E0A70196010E94A606215092
:100730003109410951095695479537952795211556
:1007400080E1380798F0E889F989108260E874E858
:100750008EE190E0A70196010E94A6062150310982
:10076000410951095695479537952795EC85FD85A3
:100770003083EE85FF852083188EEC89FD89B08259
:10078000EA89FB89808180618083EA89FB89808195
:1007900088608083EA89FB89808180688083EA8918
:1007A000FB8980818F7D8083DF91CF91FF90EF90D7
:1007B000DF90CF90BF9008951F920F920FB60F92C7
:1007C00011242F938F939F93EF93FF93E091050252
:1007D000F09106028081E0910B02F0910C0282FD03
:1007E00012C0908180910E028F5F8F7320910F0253
:1007F000821751F0E0910E02F0E0EB50FE4F958F22
:1008000080930E0201C08081FF91EF919F918F91A3
:100810002F910F900FBE0F901F9018951F920F925F
:100820000FB60F9211242F933F934F935F936F93C3
:100830007F938F939F93AF93BF93EF93FF9385EF36
:1008400091E00E94D202FF91EF91BF91AF919F91F1
:100850008F917F916F915F914F913F912F910F9069
:100860000FBE0F901F90189585EF91E00E949702A0
:1008700021E0892B09F420E0822F08951092F801DD
:100880001092F70188EE93E0A0E0B0E08093F901C8
:100890009093FA01A093FB01B093FC0189E591E0EC
:1008A0009093F6018093F50185EC90E0909302021D
:1008B0008093010284EC90E0909304028093030201
:1008C00080EC90E0909306028093050281EC90E02A
:1008D000909308028093070282EC90E090930A02C2
:1008E0008093090286EC90E090930C0280930B02B7
:1008F00010920E0210920F0210921002109211022A
:100900000895CF92DF92EF92FF920F931F93CF93B0
:10091000DF936C017A01EB01E60EF71E00E010E0B8
:10092000CE15DF0561F06991D601ED91FC91019042
:10093000F081E02DC6010995080F191FF1CFC801FC
:10094000DF91CF911F910F91FF90EF90DF90CF90AB
:1009500008956115710581F0DB010D900020E9F724
:10096000AD0141505109461B570BDC01ED91FC9143
:100970000280F381E02D099480E090E008950C94CA
:10098000A904DC01ED91FC910190F081E02D099426
:1009900065E671E00C94A9040F931F93CF93DF9346
:1009A000EC010E94A9048C01CE010E94C804800FB2
:1009B000911FDF91CF911F910F9108958F929F9278
:1009C000AF92BF92CF92DF92EF92FF920F931F935D
:1009D000CF93DF93CDB7DEB7A1970FB6F894DEBF04
:1009E0000FBECDBF7C01C42EE52FCB01D22E19A2A4
:1009F00021E02D1510F02AE0D22E8E010F5D1F4F41
:100A00008D2C912CA12CB12C6C2D7E2FA501940145
:100A10000E94A6068C2DD29E801911240150110926
:100A20008A3014F4805D01C0895CF801808321154F
:100A300031054105510521F0C22EE32FCA01E4CF53
:100A4000B801C7010E94A904A1960FB6F894DEBFB1
:100A50000FBECDBFDF91CF911F910F91FF90EF900F
:100A6000DF90CF90BF90AF909F908F900895CF92DE
:100A7000DF92EF92FF920F931F93CF93DF93EC01DE
:100A80006A017B012115310579F4E881F981019032
:100A9000F081E02D642FDF91CF911F910F91FF9096
:100AA000EF90DF90CF9009942A303105E9F477FF79
:100AB0001AC06DE20E94C1048C0144275527BA0177
:100AC0004C195D096E097F092AE0CE010E94DE04FF
:100AD000800F911FDF91CF911F910F91FF90EF90A9
:100AE000DF90CF9008952AE0B701A601CE01DF91F3
:100AF000CF911F910F91FF90EF90DF90CF900C94CA
:100B0000DE049A01AB01662757FD6095762F0C94A1
:100B100037051F920F920FB60F9211242F933F9318
:100B20008F939F93AF93BF93809193029091940280
:100B3000A0919502B09196023091920223E0230F8A
:100B40002D3720F40196A11DB11D05C026E8230F05
:100B50000296A11DB11D209392028093930290935F
:100B60009402A0939502B09396028091970290917F
:100B70009802A0919902B0919A020196A11DB11D0F
:100B80008093970290939802A0939902B0939A024F
:100B9000BF91AF919F918F913F912F910F900FBE79
:100BA0000F901F901895789484B5826084BD84B5A9
:100BB000816084BD85B5826085BD85B5816085BD58
:100BC000EEE6F0E0808181608083E1E8F0E0108271
:100BD000808182608083808181608083E0E8F0E0B2
:100BE000808181608083E1EBF0E08081846080839C
:100BF000E0EBF0E0808181608083EAE7F0E08081D3
:100C00008460808380818260808380818160808332
:100C10008081806880831092C1000895833081F0C4
:100C200028F4813099F08230A1F008958730A9F03E
:100C30008830B9F08430D1F4809180008F7D03C07A
:100C4000809180008F7780938000089584B58F779E
:100C500002C084B58F7D84BD08958091B0008F77E8
:100C600003C08091B0008F7D8093B0000895CF9332
:100C7000DF9390E0FC01E456FF4F2491FC01E05526
:100C8000FF4F8491882349F190E0880F991FFC0160
:100C9000E253FF4FA591B4918C539F4FFC01C59136
:100CA000D4919FB7611108C0F8948C91209582234C
:100CB0008C93888182230AC0623051F4F8948C911D
:100CC000322F309583238C938881822B888304C0B4
:100CD000F8948C91822B8C939FBFDF91CF910895D4
:100CE0000F931F93CF93DF931F92CDB7DEB7282FBB
:100CF00030E0F901E857FF4F8491F901E456FF4FC6
:100D00001491F901E055FF4F04910023C9F08823A5
:100D100021F069830E940E066981E02FF0E0EE0F5A
:100D2000FF1FEC53FF4FA591B4919FB7F8948C919E
:100D3000611103C01095812301C0812B8C939FBF4B
:100D40000F90DF91CF911F910F910895A1E21A2E7C
:100D5000AA1BBB1BFD010DC0AA1FBB1FEE1FFF1F5F
:100D6000A217B307E407F50720F0A21BB30BE40BAF
:100D7000F50B661F771F881F991F1A9469F76095F6
:100D80007095809590959B01AC01BD01CF010895B0
:100D9000EE0FFF1F0590F491E02D0994F894FFCF1A
:100DA00053657474696E6720616C6C20746F206386
:100DB0006F6C6F75723A20002E2E2E646F6E652E4A
:100DC00000426567696E6E696E672064726177695B
:100DD0006E6720626F6172642E2E2E002E2E2E649E
:100DE0006F6E6520626567696E6E696E672E004280
:100DF0004547494E0000000000150381049702B0EA
:100E000002A202F3020D0A006E616E00696E6600B6
:040E10006F76660093
:00000001FF
