:100000000C946A000C9492000C9492000C94920050
:100010000C9492000C9492000C9492000C94920018
:100020000C9492000C9492000C9492000C94920008
:100030000C9492000C9492000C9492000C949200F8
:100040000C944C060C9492000C941B040C944D04DC
:100050000C9492000C9492000C9492000C949200D8
:100060000C9492000C949200C000A300A700AB0077
:10007000AF00B300B700BB00C200A500A900AD00EF
:10008000B100B500B900BD00000000080002010089
:100090000003040700000000000000000102040843
:1000A00010204080010204081020010204081020E2
:1000B000040404040404040402020202020203030E
:1000C0000303030300000000250028002B00ED01BE
:1000D0007D040B0211241FBECFEFD8E0DEBFCDBFE1
:1000E00011E0A0E0B1E0E2E5F3E102C005900D927D
:1000F000AC3CB107D9F722E0ACECB1E001C01D92F5
:10010000A839B207E1F710E0C2EDD0E004C02297B1
:10011000FE010E946007CE3CD107C9F70E94A602EB
:100120000C949C090C940000DC01ED91FC91019071
:10013000F081E02D09948031910508F5FC01EC5C1B
:10014000FF4F0C945E0786E01EC08EE01CC085E069
:100150001AC08DE018C084E016C08CE014C083E0A3
:1001600012C08BE010C082E00EC08AE00CC081E0BB
:100170000AC089E008C080E006C088E004C0089595
:1001800087E001C08FE090E008952F923F924F9258
:100190005F926F927F928F929F92AF92BF92CF9217
:1001A000DF92EF92FF920F931F93CF93DF9300D0D4
:1001B00000D000D0CDB7DEB79E838D833C0180E9AF
:1001C000681A8EEF780A07E110E08FE0A82EB12CB4
:1001D000480194E0880C991C9A95E1F78D819E81E5
:1001E000880E991E680198E0C91AD10824E0CC0C49
:1001F000DD1C2A95E1F7ED81FE81CE0EDF1E780130
:10020000F0E1EF1AF10834E0EE0CFF1C3A95E1F74B
:100210008D819E81E80EF91E23014A0C5B1CF201C0
:10022000E056F1093080E058F1092080C5010E94B4
:100230009B00F401E80FF91F20A1F601E80FF91F58
:1002400030A1F701E80FF91F40A1F20190A19095AC
:10025000692F6870ED81FE81828129833B834C8305
:100260009A830E9406072981622F60956470ED8150
:10027000FE8183810E9406079A81692F6270ED8159
:10028000FE8184810E9406073094632D6870ED81A1
:10029000FE8185810E9406073B81632F6095647013
:1002A000ED81FE8186810E940607632D6270ED81DB
:1002B000FE8187810E9406072094622D6870ED817F
:1002C000FE8180850E9406074C81642F60956470D2
:1002D000ED81FE8181850E940607622D6270ED81AD
:1002E000FE8182850E94060760E0ED81FE818485A3
:1002F0000E94060761E0ED81FE8184850E94060769
:10030000F1E0AF1AB10808F087CF60E0ED81FE811F
:1003100085850E94060761E0ED81FE8185850E944A
:100320000607F0E16F1A7108015011090F3011052D
:1003300009F04BCFED81FE8186858F5F86872696FB
:100340000FB6F894DEBF0FBECDBFDF91CF911F91E6
:100350000F91FF90EF90DF90CF90BF90AF909F9064
:100360008F907F906F905F904F903F902F90089567
:10037000CF92DF92EF92FF920F931F93CF93DF9371
:10038000EC010E9496066B017C01488559856A85BF
:100390007B850A811B812C813D81400F511F621F8B
:1003A000731F4C155D056E057F055CF4E881F981CE
:1003B0000088F189E02DCE010995CA82DB82EC82AA
:1003C000FD82CE010C96DF91CF911F910F91FF908E
:1003D000EF90DF90CF900C94C5006CE671E088ED53
:1003E00091E00E9436066EE571E08EED91E00E948C
:1003F000360662E771E084EE91E00E9436066AE01C
:1004000071E08CEC91E00E94360666E571E082EDC9
:1004100091E00C94360682ED91E00E94C8058CECC8
:1004200091E00E94C80584EE91E00E94C8058EED1F
:1004300091E00E94C80588ED91E00C94C805CF9327
:10044000DF9300D0CDB7DEB78091940290919502F2
:100450009E012F5F3F4F009719F42859324002C088
:10046000281B390B3A83298389819A810F900F9039
:10047000DF91CF910895089526E040E855E260E0CD
:1004800070E08EEE91E00E94B90368E771E08EEEB5
:1004900091E00E940B056BE871E08EEE91E00E9406
:1004A000FE040E941F024AE050E0BC018EEE91E083
:1004B0000E94C00562E470E08EEE91E00E9494001C
:1004C0006AE070E08EEE91E00E9494006DE070E0D2
:1004D0008EEE91E00C9494004091EA015091EB0172
:1004E000452B29F56630710559F4A091EC01B091C6
:1004F000ED01ED91FC9111970280F381E02D0DC08B
:100500006730710569F4A091EC01B091ED01ED91B6
:10051000FC9111970480F581E02DBC01CD01099477
:100520006230710521F47093EB016093EA01089544
:10053000A091EC01B091ED01ED91FC9111973697EE
:10054000808191818A0F9B1F0C94B8010E94A206A2
:100550000E943B020E943C02C3E0D3E00E9498024A
:100560002097E1F30E940303F9CF8EEE91E00E9401
:10057000EF028136910589F01CF48C9741F00895C3
:100580008536910569F08F36910521F0089564E074
:1005900070E008C065E070E005C067E070E002C090
:1005A00066E070E082E090E00C946C02FC01818DCA
:1005B000228D90E0805C9F4F821B91098F73992759
:1005C0000895FC01918D828D981731F0828DE80F8E
:1005D000F11D858D90E008958FEF9FEF0895FC0148
:1005E000918D828D981761F0828DDF01A80FB11D6A
:1005F0005D968C91928D9F5F9F73928F90E008958E
:100600008FEF9FEF089583E794E0892B49F085EB06
:1006100092E0892B29F00E94730481110C94B50299
:100620000895FC01848DDF01A80FB11DA35ABF4FAF
:100630002C91848D90E001968F739927848FA689E1
:10064000B7892C93A089B1898C9180648C93938D08
:10065000848D981306C00288F389E02D80818F7DF8
:1006600080830895CF93DF93EC01888D8823C9F0B0
:10067000EA89FB89808185FD05C0A889B9898C91AB
:1006800086FD0FC00FB607FCF5CF808185FFF2CF46
:10069000A889B9898C9185FFEDCFCE010E94110305
:1006A000E7CFDF91CF910895CF92DF92FF920F9322
:1006B0001F93CF93DF931F92CDB7DEB76C0181E01C
:1006C000D60158968C9358975B969C915B975C9655
:1006D0008C915C97981307C05096ED91FC915197BF
:1006E000808185FD2EC0F601038D10E00F5F1F4F46
:1006F0000F731127F02EF601848DF81211C00FB67A
:1007000007FCF9CFD6015096ED91FC91519780816D
:1007100085FFF1CFC60169830E9411036981EBCF88
:10072000838DE80FF11DE35AFF4F6083D6015B967E
:100730000C935B975296ED91FC9153978081806268
:100740000CC0D6015696ED91FC9157976083509658
:10075000ED91FC91519780818064808381E090E0ED
:100760000F90DF91CF911F910F91FF90DF90CF906D
:100770000895BF92CF92DF92EF92FF92CF93DF93D3
:10078000EC016A017B01B22EE889F98982E080835D
:10079000411581EE580761057105A1F060E079E02F
:1007A0008DE390E0A70196010E943C07215031099A
:1007B000410951095695479537952795211580E1AF
:1007C000380798F0E889F989108260E874E88EE1CA
:1007D00090E0A70196010E943C0721503109410990
:1007E00051095695479537952795EC85FD853083BA
:1007F000EE85FF852083188EEC89FD89B082EA8919
:10080000FB89808180618083EA89FB89808188609F
:100810008083EA89FB89808180688083EA89FB89FB
:1008200080818F7D8083DF91CF91FF90EF90DF906B
:10083000CF90BF9008951F920F920FB60F92112480
:100840002F938F939F93EF93FF93E091FE01F0918D
:10085000FF018081E0910402F091050282FD12C047
:100860009081809107028F5F8F7320910802821719
:1008700051F0E0910702F0E0E251FE4F958F809336
:10088000070201C08081FF91EF919F918F912F917D
:100890000F900FBE0F901F9018951F920F920FB6DA
:1008A0000F9211242F933F934F935F936F937F93F6
:1008B0008F939F93AF93BF93EF93FF938EEE91E04F
:1008C0000E941103FF91EF91BF91AF919F918F9182
:1008D0007F916F915F914F913F912F910F900FBE3C
:1008E0000F901F9018958EEE91E00E94D60221E0A5
:1008F000892B09F420E0822F08951092F1011092C3
:10090000F00188EE93E0A0E0B0E08093F2019093D4
:10091000F301A093F401B093F50180EB91E0909383
:10092000EF018093EE0185EC90E09093FB018093C2
:10093000FA0184EC90E09093FD018093FC0180EC3F
:1009400090E09093FF018093FE0181EC90E0909302
:1009500001028093000282EC90E090930302809366
:10096000020286EC90E090930502809304021092BC
:100970000702109208021092090210920A020895CA
:10098000CF92DF92EF92FF920F931F93CF93DF935B
:100990006C017A01EB01E60EF71E00E010E0CE15C7
:1009A000DF0561F06991D601ED91FC910190F08134
:1009B000E02DC6010995080F191FF1CFC801DF917D
:1009C000CF911F910F91FF90EF90DF90CF900895FE
:1009D0006115710581F0DB010D900020E9F7AD0193
:1009E00041505109461B570BDC01ED91FC910280EF
:1009F000F381E02D099480E090E008950C94E804E0
:100A0000DC01ED91FC910190F081E02D09946CEBFB
:100A100071E00C94E8040F931F93CF93DF93EC01E4
:100A20000E94E8048C01CE010E940705800F911FEF
:100A3000DF91CF911F910F9108958F929F92AF9266
:100A4000BF92CF92DF92EF92FF920F931F93CF93BB
:100A5000DF93CDB7DEB7A1970FB6F894DEBF0FBE18
:100A6000CDBF7C01C42EE52FCB01D22E19A221E0EF
:100A70002D1510F02AE0D22E8E010F5D1F4F8D2C08
:100A8000912CA12CB12C6C2D7E2FA50194010E94DC
:100A90003C078C2DD29E80191124015011098A30F7
:100AA00014F4805D01C0895CF80180832115310553
:100AB0004105510521F0C22EE32FCA01E4CFB80150
:100AC000C7010E94E804A1960FB6F894DEBF0FBEDE
:100AD000CDBFDF91CF911F910F91FF90EF90DF90ED
:100AE000CF90BF90AF909F908F900895CF92DF925C
:100AF000EF92FF920F931F93CF93DF93EC016A0164
:100B00007B012115310579F4E881F9810190F081AB
:100B1000E02D642FDF91CF911F910F91FF90EF9007
:100B2000DF90CF9009942A303105E9F477FF1AC09D
:100B30006DE20E9400058C0144275527BA014C192B
:100B40005D096E097F092AE0CE010E941D05800F14
:100B5000911FDF91CF911F910F91FF90EF90DF9048
:100B6000CF9008952AE0B701A601CE01DF91CF9181
:100B70001F910F91FF90EF90DF90CF900C941D0587
:100B80009A01AB01662757FD6095762F0C94760588
:100B9000FC01808191810C94FC07CF93DF93EC01E1
:100BA00088819981009711F00E94FC0719821882B0
:100BB0001D821C821B821A82DF91CF9108950F93B0
:100BC0001F93CF93DF93EC018B016F5F7F4F888181
:100BD00099810E948B08009731F0998388831B8349
:100BE0000A8381E001C080E0DF91CF911F910F91D6
:100BF0000895CF93DF93EC0188819981892B29F0A7
:100C00008A819B818617970760F4CE010E94DF05D9
:100C1000882341F08C819D81892B19F4E881F98129
:100C2000108281E0DF91CF910895EF92FF920F93B0
:100C30001F93CF93DF93EC017B018A01BA010E94DD
:100C4000F905811104C0CE010E94CD0507C01D83A6
:100C50000C83B701888199810E945E09CE01DF91E2
:100C6000CF911F910F91FF90EF900895FC01118299
:100C7000108213821282158214826115710559F057
:100C8000FB0101900020E9F7AF0141505109461BDB
:100C9000570B0C94150608951F920F920FB60F92E2
:100CA00011242F933F938F939F93AF93BF93809182
:100CB0008C0290918D02A0918E02B0918F023091A2
:100CC0008B0223E0230F2D3720F40196A11DB11DC7
:100CD00005C026E8230F0296A11DB11D20938B02AB
:100CE00080938C0290938D02A0938E02B0938F021A
:100CF0008091900290919102A0919202B091930202
:100D00000196A11DB11D8093900290939102A09332
:100D10009202B0939302BF91AF919F918F913F91B7
:100D20002F910F900FBE0F901F9018952FB7F8942A
:100D300060918C0270918D0280918E0290918F0251
:100D40002FBF0895789484B5826084BD84B5816096
:100D500084BD85B5826085BD85B5816085BDEEE6C3
:100D6000F0E0808181608083E1E8F0E010828081A2
:100D700082608083808181608083E0E8F0E0808110
:100D800081608083E1EBF0E0808184608083E0EB30
:100D9000F0E0808181608083EAE7F0E08081846018
:100DA0008083808182608083808181608083808174
:100DB000806880831092C1000895833081F028F408
:100DC000813099F08230A1F008958730A9F0883001
:100DD000B9F08430D1F4809180008F7D03C0809180
:100DE00080008F7780938000089584B58F7702C04C
:100DF00084B58F7D84BD08958091B0008F7703C046
:100E00008091B0008F7D8093B00008950F931F9361
:100E1000CF93DF931F92CDB7DEB7282F30E0F901D3
:100E2000E857FF4F8491F901E456FF4F1491F901FF
:100E3000E055FF4F04910023C9F0882321F0698316
:100E40000E94DD066981E02FF0E0EE0FFF1FEC53FA
:100E5000FF4FA591B4919FB7F8948C91611103C095
:100E60001095812301C0812B8C939FBF0F90DF9140
:100E7000CF911F910F910895A1E21A2EAA1BBB1BBF
:100E8000FD010DC0AA1FBB1FEE1FFF1FA217B30756
:100E9000E407F50720F0A21BB30BE40BF50B661F6C
:100EA000771F881F991F1A9469F760957095809530
:100EB00090959B01AC01BD01CF010895EE0FFF1F7E
:100EC0000590F491E02D0994CF93DF938230910542
:100ED00010F482E090E0E0919602F091970220E019
:100EE00030E0A0E0B0E0309739F1408151814817FF
:100EF0005907B8F04817590771F482819381109708
:100F000029F013969C938E9312972CC0909397027E
:100F10008093960227C02115310531F042175307FF
:100F200018F0A901DB0101C0EF019A01BD01DF0149
:100F30000280F381E02DD7CF21153105F9F0281B70
:100F4000390B2430310580F48A819B81611571054C
:100F500021F0FB019383828304C0909397028093D6
:100F60009602FE01329644C0FE01E20FF31F819308
:100F7000919322503109398328833AC020919402F9
:100F800030919502232B41F420910201309103010D
:100F90003093950220939402209100013091010139
:100FA0002115310541F42DB73EB740910401509110
:100FB0000501241B350BE0919402F0919502E21794
:100FC000F307A0F42E1B3F0B2817390778F0AC016C
:100FD0004E5F5F4F2417350748F04E0F5F1F509349
:100FE0009502409394028193919302C0E0E0F0E077
:100FF000CF01DF91CF910895CF93DF93009709F44C
:1010000087C0FC01329713821282C0919602D09160
:101010009702209781F420813181280F391F809118
:101020009402909195028217930779F5F0939502B7
:10103000E09394026DC0DE0120E030E0AE17BF0700
:1010400050F412964D915C9113979D0141155105F5
:1010500009F1DA01F3CFB383A28340815181840F78
:10106000951F8A179B0771F48D919C911197840F9E
:10107000951F02969183808312968D919C91139770
:10108000938382832115310529F4F0939702E0932D
:1010900096023EC0D9011396FC93EE9312974D91A0
:1010A0005D91A40FB51FEA17FB0779F48081918148
:1010B000840F951F0296D90111969C938E9382817D
:1010C000938113969C938E931297E0E0F0E08A81CF
:1010D0009B81009719F0FE01EC01F9CFCE01029639
:1010E00028813981820F931F2091940230919502BB
:1010F0002817390769F4309729F410929702109253
:10110000960202C013821282D0939502C093940279
:10111000DF91CF910895A0E0B0E0E1E9F8E00C9410
:101120006909EC01CB01209719F40E946407B8C04B
:10113000FE01E60FF71F9E0122503109E217F30767
:1011400008F4ACC0D9010D911C911197061717072F
:10115000B8F00530110508F49FC0A80144505109AA
:101160004617570708F498C002501109061B170BC1
:10117000019311936D937C93CF010E94FC078CC067
:101180005B01A01AB10A4E01800E911EA091960239
:10119000B0919702612C712C60E070E0109709F417
:1011A00049C0A815B905C9F5ED90FC9011976701E4
:1011B00042E0C40ED11CCA14DB0478F147018A183E
:1011C0009B08640142E0C40ED11C1296BC90129799
:1011D0001396AC91B5E0CB16D10440F0B282A38354
:1011E00091828082D9018D939C9309C00E5F1F4F1D
:1011F0000E0D1F1DF90111830083EB2DFA2F6115D0
:10120000710531F0DB011396FC93EE93129744C005
:10121000F0939702E09396023FC06D917C911197F5
:101220006616770608F43B01BD0112960D90BC913D
:10123000A02DB4CF60919402709195026815790544
:10124000E9F468167906D0F440910001509101014B
:101250004115510541F44DB75EB76091040170919D
:101260000501461B570BE417F507C0F4F0939502F0
:10127000E0939402F901918380830EC00E94640779
:101280007C01009759F0A801BE010E945509CE01CA
:101290000E94FC07C70104C0CE0102C080E090E0BC
:1012A000CDB7DEB7EEE00C948509FB01DC0102C08E
:1012B00001900D9241505040D8F70895FB01DC0198
:1012C00001900D920020E1F708952F923F924F92E6
:1012D0005F926F927F928F929F92AF92BF92CF92C6
:1012E000DF92EF92FF920F931F93CF93DF93CDB7CF
:1012F000DEB7CA1BDB0B0FB6F894DEBF0FBECDBF47
:1013000009942A88398848885F846E847D848C8417
:101310009B84AA84B984C884DF80EE80FD800C8120
:101320001B81AA81B981CE0FD11D0FB6F894DEBF03
:101330000FBECDBFED01089510E0C2EDD0E004C0B6
:10134000FE010E9460072296C43DD107C9F7F894B8
:02135000FFCFCD
:101352000000980280003E003C00506F6E67005310
:10136200636F72653A004C6576656C3A0041424F94
:101372005554005247422D4C4544204D61747269C8
:101382007800456D696C204261686E73656E004D30
:10139200617274696E204E79686F6C6D00456C2CB9
:1013A20020323031350046726F67676572004F70C8
:1013B20074696F6E7300536E616B650047616D6592
:1013C200730041626F757400524742204D6174721E
:1013D2006978204172636164652E00457869746999
:1013E2006E67207365747570207769746820667201
:1013F2006565206D656D6F72793A2000000000000E
:101402005403C004D602EF02E10232030D0A006E59
:0C141200616E00696E66006F7666000077
:00000001FF
